{
  "_format": "hh-sol-artifact-1",
  "contractName": "MultiSigBudget",
  "sourceName": "contracts/MultiSigBudget.sol",
  "abi": [
    {
      "inputs": [
        {
          "internalType": "address[]",
          "name": "_managers",
          "type": "address[]"
        }
      ],
      "stateMutability": "nonpayable",
      "type": "constructor"
    },
    {
      "inputs": [],
      "name": "AlreadyApproved",
      "type": "error"
    },
    {
      "inputs": [],
      "name": "ApprovalPending",
      "type": "error"
    },
    {
      "inputs": [],
      "name": "BudgetAlreadyReleased",
      "type": "error"
    },
    {
      "inputs": [],
      "name": "DuplicateManager",
      "type": "error"
    },
    {
      "inputs": [],
      "name": "InsufficientFunds",
      "type": "error"
    },
    {
      "inputs": [],
      "name": "InvalidAmount",
      "type": "error"
    },
    {
      "inputs": [],
      "name": "InvalidBudgetId",
      "type": "error"
    },
    {
      "inputs": [],
      "name": "InvalidManagerAddress",
      "type": "error"
    },
    {
      "inputs": [],
      "name": "InvalidRecipient",
      "type": "error"
    },
    {
      "inputs": [],
      "name": "NotManager",
      "type": "error"
    },
    {
      "anonymous": false,
      "inputs": [
        {
          "indexed": true,
          "internalType": "uint256",
          "name": "budgetId",
          "type": "uint256"
        },
        {
          "indexed": true,
          "internalType": "address",
          "name": "approver",
          "type": "address"
        }
      ],
      "name": "BudgetApproved",
      "type": "event"
    },
    {
      "anonymous": false,
      "inputs": [
        {
          "indexed": true,
          "internalType": "uint256",
          "name": "budgetId",
          "type": "uint256"
        },
        {
          "indexed": true,
          "internalType": "address",
          "name": "recipient",
          "type": "address"
        },
        {
          "indexed": false,
          "internalType": "uint256",
          "name": "amount",
          "type": "uint256"
        }
      ],
      "name": "BudgetProposed",
      "type": "event"
    },
    {
      "anonymous": false,
      "inputs": [
        {
          "indexed": true,
          "internalType": "uint256",
          "name": "budgetId",
          "type": "uint256"
        },
        {
          "indexed": true,
          "internalType": "address",
          "name": "recipient",
          "type": "address"
        },
        {
          "indexed": false,
          "internalType": "uint256",
          "name": "amount",
          "type": "uint256"
        }
      ],
      "name": "BudgetReleased",
      "type": "event"
    },
    {
      "anonymous": false,
      "inputs": [
        {
          "indexed": true,
          "internalType": "address",
          "name": "sender",
          "type": "address"
        },
        {
          "indexed": false,
          "internalType": "uint256",
          "name": "amount",
          "type": "uint256"
        }
      ],
      "name": "Deposit",
      "type": "event"
    },
    {
      "inputs": [
        {
          "internalType": "uint256",
          "name": "",
          "type": "uint256"
        },
        {
          "internalType": "address",
          "name": "",
          "type": "address"
        }
      ],
      "name": "approvals",
      "outputs": [
        {
          "internalType": "bool",
          "name": "",
          "type": "bool"
        }
      ],
      "stateMutability": "view",
      "type": "function"
    },
    {
      "inputs": [
        {
          "internalType": "uint256",
          "name": "_budgetId",
          "type": "uint256"
        }
      ],
      "name": "approveBudget",
      "outputs": [],
      "stateMutability": "nonpayable",
      "type": "function"
    },
    {
      "inputs": [
        {
          "internalType": "uint256",
          "name": "",
          "type": "uint256"
        }
      ],
      "name": "budgets",
      "outputs": [
        {
          "internalType": "address payable",
          "name": "recipient",
          "type": "address"
        },
        {
          "internalType": "uint256",
          "name": "amount",
          "type": "uint256"
        },
        {
          "internalType": "bool",
          "name": "released",
          "type": "bool"
        },
        {
          "internalType": "uint256",
          "name": "approvals",
          "type": "uint256"
        },
        {
          "internalType": "uint256",
          "name": "timestamp",
          "type": "uint256"
        }
      ],
      "stateMutability": "view",
      "type": "function"
    },
    {
      "inputs": [
        {
          "internalType": "uint256",
          "name": "_budgetId",
          "type": "uint256"
        }
      ],
      "name": "getBudgetStatus",
      "outputs": [
        {
          "internalType": "address",
          "name": "recipient",
          "type": "address"
        },
        {
          "internalType": "uint256",
          "name": "amount",
          "type": "uint256"
        },
        {
          "internalType": "uint256",
          "name": "approvalCount",
          "type": "uint256"
        },
        {
          "internalType": "uint256",
          "name": "timestamp",
          "type": "uint256"
        }
      ],
      "stateMutability": "view",
      "type": "function"
    },
    {
      "inputs": [],
      "name": "getBudgets",
      "outputs": [
        {
          "components": [
            {
              "internalType": "address payable",
              "name": "recipient",
              "type": "address"
            },
            {
              "internalType": "uint256",
              "name": "amount",
              "type": "uint256"
            },
            {
              "internalType": "bool",
              "name": "released",
              "type": "bool"
            },
            {
              "internalType": "uint256",
              "name": "approvals",
              "type": "uint256"
            },
            {
              "internalType": "uint256",
              "name": "timestamp",
              "type": "uint256"
            }
          ],
          "internalType": "struct MultiSigBudget.Budget[]",
          "name": "",
          "type": "tuple[]"
        }
      ],
      "stateMutability": "view",
      "type": "function"
    },
    {
      "inputs": [],
      "name": "getmanagers",
      "outputs": [
        {
          "internalType": "address[]",
          "name": "",
          "type": "address[]"
        }
      ],
      "stateMutability": "view",
      "type": "function"
    },
    {
      "inputs": [
        {
          "internalType": "address",
          "name": "",
          "type": "address"
        }
      ],
      "name": "isManager",
      "outputs": [
        {
          "internalType": "bool",
          "name": "",
          "type": "bool"
        }
      ],
      "stateMutability": "view",
      "type": "function"
    },
    {
      "inputs": [
        {
          "internalType": "uint256",
          "name": "",
          "type": "uint256"
        }
      ],
      "name": "managers",
      "outputs": [
        {
          "internalType": "address",
          "name": "",
          "type": "address"
        }
      ],
      "stateMutability": "view",
      "type": "function"
    },
    {
      "inputs": [
        {
          "internalType": "address payable",
          "name": "_recipient",
          "type": "address"
        },
        {
          "internalType": "uint256",
          "name": "_amount",
          "type": "uint256"
        }
      ],
      "name": "proposeBudget",
      "outputs": [],
      "stateMutability": "nonpayable",
      "type": "function"
    },
    {
      "stateMutability": "payable",
      "type": "receive"
    }
  ],
  "bytecode": "0x608060405234801561001057600080fd5b506040516119363803806119368339818101604052810190610032919061046d565b6005815114610076576040517f08c379a000000000000000000000000000000000000000000000000000000000815260040161006d90610513565b60405180910390fd5b60005b815181101561029b57600073ffffffffffffffffffffffffffffffffffffffff168282815181106100ad576100ac610533565b5b602002602001015173ffffffffffffffffffffffffffffffffffffffff1603610102576040517f1c17a33c00000000000000000000000000000000000000000000000000000000815260040160405180910390fd5b6001600083838151811061011957610118610533565b5b602002602001015173ffffffffffffffffffffffffffffffffffffffff1673ffffffffffffffffffffffffffffffffffffffff16815260200190815260200160002060009054906101000a900460ff16156101a0576040517ffe47894400000000000000000000000000000000000000000000000000000000815260040160405180910390fd5b60008282815181106101b5576101b4610533565b5b60200260200101519080600181540180825580915050600190039060005260206000200160009091909190916101000a81548173ffffffffffffffffffffffffffffffffffffffff021916908373ffffffffffffffffffffffffffffffffffffffff160217905550600180600084848151811061023557610234610533565b5b602002602001015173ffffffffffffffffffffffffffffffffffffffff1673ffffffffffffffffffffffffffffffffffffffff16815260200190815260200160002060006101000a81548160ff0219169083151502179055508080600101915050610079565b5050610562565b6000604051905090565b600080fd5b600080fd5b600080fd5b6000601f19601f8301169050919050565b7f4e487b7100000000000000000000000000000000000000000000000000000000600052604160045260246000fd5b610304826102bb565b810181811067ffffffffffffffff82111715610323576103226102cc565b5b80604052505050565b60006103366102a2565b905061034282826102fb565b919050565b600067ffffffffffffffff821115610362576103616102cc565b5b602082029050602081019050919050565b600080fd5b600073ffffffffffffffffffffffffffffffffffffffff82169050919050565b60006103a382610378565b9050919050565b6103b381610398565b81146103be57600080fd5b50565b6000815190506103d0816103aa565b92915050565b60006103e96103e484610347565b61032c565b9050808382526020820190506020840283018581111561040c5761040b610373565b5b835b81811015610435578061042188826103c1565b84526020840193505060208101905061040e565b5050509392505050565b600082601f830112610454576104536102b6565b5b81516104648482602086016103d6565b91505092915050565b600060208284031215610483576104826102ac565b5b600082015167ffffffffffffffff8111156104a1576104a06102b1565b5b6104ad8482850161043f565b91505092915050565b600082825260208201905092915050565b7f4d75737420686176652065786163746c792035206d616e616765727300000000600082015250565b60006104fd601c836104b6565b9150610508826104c7565b602082019050919050565b6000602082019050818103600083015261052c816104f0565b9050919050565b7f4e487b7100000000000000000000000000000000000000000000000000000000600052603260045260246000fd5b6113c5806105716000396000f3fe60806040526004361061008a5760003560e01c80639e850002116100595780639e850002146101b65780639f3ab19d146101e1578063ab2850da14610221578063cb62a60e1461025e578063f3ae241514610287576100df565b80631495a9db146100e4578063304911441461010d5780633d39c2601461013857806369f0e05f14610175576100df565b366100df573373ffffffffffffffffffffffffffffffffffffffff167fe1fffcc4923d04b559f4d29a8bfc6cda04eb5b0d3c460751c2402c5c5cc9109c346040516100d59190610da6565b60405180910390a2005b600080fd5b3480156100f057600080fd5b5061010b60048036038101906101069190610df2565b6102c4565b005b34801561011957600080fd5b5061012261056e565b60405161012f9190610fa1565b60405180910390f35b34801561014457600080fd5b5061015f600480360381019061015a9190610df2565b61065c565b60405161016c9190610fe4565b60405180910390f35b34801561018157600080fd5b5061019c60048036038101906101979190610df2565b61069b565b6040516101ad95949392919061101d565b60405180910390f35b3480156101c257600080fd5b506101cb61070e565b6040516101d8919061112e565b60405180910390f35b3480156101ed57600080fd5b5061020860048036038101906102039190610df2565b61079c565b6040516102189493929190611150565b60405180910390f35b34801561022d57600080fd5b50610248600480360381019061024391906111c1565b61084a565b6040516102559190611201565b60405180910390f35b34801561026a57600080fd5b5061028560048036038101906102809190611248565b610879565b005b34801561029357600080fd5b506102ae60048036038101906102a99190611288565b610af3565b6040516102bb9190611201565b60405180910390f35b600160003373ffffffffffffffffffffffffffffffffffffffff1673ffffffffffffffffffffffffffffffffffffffff16815260200190815260200160002060009054906101000a900460ff16610347576040517fc0fc8a8a00000000000000000000000000000000000000000000000000000000815260040160405180910390fd5b6003805490508110610385576040517fca06289200000000000000000000000000000000000000000000000000000000815260040160405180910390fd5b60006003828154811061039b5761039a6112b5565b5b906000526020600020906005020190508060020160009054906101000a900460ff16156103f4576040517f3d0f873800000000000000000000000000000000000000000000000000000000815260040160405180910390fd5b6002600083815260200190815260200160002060003373ffffffffffffffffffffffffffffffffffffffff1673ffffffffffffffffffffffffffffffffffffffff16815260200190815260200160002060009054906101000a900460ff1615610489576040517f101f817a00000000000000000000000000000000000000000000000000000000815260040160405180910390fd5b60016002600084815260200190815260200160002060003373ffffffffffffffffffffffffffffffffffffffff1673ffffffffffffffffffffffffffffffffffffffff16815260200190815260200160002060006101000a81548160ff02191690831515021790555080600301600081548092919061050790611313565b91905055503373ffffffffffffffffffffffffffffffffffffffff16827fbf452446076dfa125302eca3a5dcd33d9375301154d2f16661f99f6feeb1add960405160405180910390a360008054905081600301540361056a5761056982610b13565b5b5050565b60606003805480602002602001604051908101604052809291908181526020016000905b8282101561065357838290600052602060002090600502016040518060a00160405290816000820160009054906101000a900473ffffffffffffffffffffffffffffffffffffffff1673ffffffffffffffffffffffffffffffffffffffff1673ffffffffffffffffffffffffffffffffffffffff168152602001600182015481526020016002820160009054906101000a900460ff161515151581526020016003820154815260200160048201548152505081526020019060010190610592565b50505050905090565b6000818154811061066c57600080fd5b906000526020600020016000915054906101000a900473ffffffffffffffffffffffffffffffffffffffff1681565b600381815481106106ab57600080fd5b90600052602060002090600502016000915090508060000160009054906101000a900473ffffffffffffffffffffffffffffffffffffffff16908060010154908060020160009054906101000a900460ff16908060030154908060040154905085565b6060600080548060200260200160405190810160405280929190818152602001828054801561079257602002820191906000526020600020905b8160009054906101000a900473ffffffffffffffffffffffffffffffffffffffff1673ffffffffffffffffffffffffffffffffffffffff1681526020019060010190808311610748575b5050505050905090565b60008060008060038054905085106107e0576040517fca06289200000000000000000000000000000000000000000000000000000000815260040160405180910390fd5b6000600386815481106107f6576107f56112b5565b5b906000526020600020906005020190508060000160009054906101000a900473ffffffffffffffffffffffffffffffffffffffff168160010154826003015483600401549450945094509450509193509193565b60026020528160005260406000206020528060005260406000206000915091509054906101000a900460ff1681565b600160003373ffffffffffffffffffffffffffffffffffffffff1673ffffffffffffffffffffffffffffffffffffffff16815260200190815260200160002060009054906101000a900460ff166108fc576040517fc0fc8a8a00000000000000000000000000000000000000000000000000000000815260040160405180910390fd5b600073ffffffffffffffffffffffffffffffffffffffff168273ffffffffffffffffffffffffffffffffffffffff1603610962576040517f9c8d2cd200000000000000000000000000000000000000000000000000000000815260040160405180910390fd5b6000810361099c576040517f2c5211c600000000000000000000000000000000000000000000000000000000815260040160405180910390fd5b60036040518060a001604052808473ffffffffffffffffffffffffffffffffffffffff1681526020018381526020016000151581526020016000815260200142815250908060018154018082558091505060019003906000526020600020906005020160009091909190915060008201518160000160006101000a81548173ffffffffffffffffffffffffffffffffffffffff021916908373ffffffffffffffffffffffffffffffffffffffff1602179055506020820151816001015560408201518160020160006101000a81548160ff021916908315150217905550606082015181600301556080820151816004015550508173ffffffffffffffffffffffffffffffffffffffff166001600380549050610ab8919061135b565b7f0943690d3031a36f0c390be1052aad7c547256a0e6527198819ed4f88e98165083604051610ae79190610da6565b60405180910390a35050565b60016020528060005260406000206000915054906101000a900460ff1681565b600160003373ffffffffffffffffffffffffffffffffffffffff1673ffffffffffffffffffffffffffffffffffffffff16815260200190815260200160002060009054906101000a900460ff16610b96576040517fc0fc8a8a00000000000000000000000000000000000000000000000000000000815260040160405180910390fd5b600060038281548110610bac57610bab6112b5565b5b9060005260206000209060050201905060008054905081600301541015610bff576040517ff2b714d800000000000000000000000000000000000000000000000000000000815260040160405180910390fd5b8060020160009054906101000a900460ff1615610c48576040517f3d0f873800000000000000000000000000000000000000000000000000000000815260040160405180910390fd5b8060010154471015610c86576040517f356680b700000000000000000000000000000000000000000000000000000000815260040160405180910390fd5b60018160020160006101000a81548160ff0219169083151502179055508060000160009054906101000a900473ffffffffffffffffffffffffffffffffffffffff1673ffffffffffffffffffffffffffffffffffffffff166108fc82600101549081150290604051600060405180830381858888f19350505050158015610d11573d6000803e3d6000fd5b508060000160009054906101000a900473ffffffffffffffffffffffffffffffffffffffff1673ffffffffffffffffffffffffffffffffffffffff16827f92fb305c7ee32863faff3d280c14905ef874d7123df16c7908bf53720f901eee8360010154604051610d819190610da6565b60405180910390a35050565b6000819050919050565b610da081610d8d565b82525050565b6000602082019050610dbb6000830184610d97565b92915050565b600080fd5b610dcf81610d8d565b8114610dda57600080fd5b50565b600081359050610dec81610dc6565b92915050565b600060208284031215610e0857610e07610dc1565b5b6000610e1684828501610ddd565b91505092915050565b600081519050919050565b600082825260208201905092915050565b6000819050602082019050919050565b600073ffffffffffffffffffffffffffffffffffffffff82169050919050565b6000610e7682610e4b565b9050919050565b610e8681610e6b565b82525050565b610e9581610d8d565b82525050565b60008115159050919050565b610eb081610e9b565b82525050565b60a082016000820151610ecc6000850182610e7d565b506020820151610edf6020850182610e8c565b506040820151610ef26040850182610ea7565b506060820151610f056060850182610e8c565b506080820151610f186080850182610e8c565b50505050565b6000610f2a8383610eb6565b60a08301905092915050565b6000602082019050919050565b6000610f4e82610e1f565b610f588185610e2a565b9350610f6383610e3b565b8060005b83811015610f94578151610f7b8882610f1e565b9750610f8683610f36565b925050600181019050610f67565b5085935050505092915050565b60006020820190508181036000830152610fbb8184610f43565b905092915050565b6000610fce82610e4b565b9050919050565b610fde81610fc3565b82525050565b6000602082019050610ff96000830184610fd5565b92915050565b61100881610e6b565b82525050565b61101781610e9b565b82525050565b600060a0820190506110326000830188610fff565b61103f6020830187610d97565b61104c604083018661100e565b6110596060830185610d97565b6110666080830184610d97565b9695505050505050565b600081519050919050565b600082825260208201905092915050565b6000819050602082019050919050565b6110a581610fc3565b82525050565b60006110b7838361109c565b60208301905092915050565b6000602082019050919050565b60006110db82611070565b6110e5818561107b565b93506110f08361108c565b8060005b8381101561112157815161110888826110ab565b9750611113836110c3565b9250506001810190506110f4565b5085935050505092915050565b6000602082019050818103600083015261114881846110d0565b905092915050565b60006080820190506111656000830187610fd5565b6111726020830186610d97565b61117f6040830185610d97565b61118c6060830184610d97565b95945050505050565b61119e81610fc3565b81146111a957600080fd5b50565b6000813590506111bb81611195565b92915050565b600080604083850312156111d8576111d7610dc1565b5b60006111e685828601610ddd565b92505060206111f7858286016111ac565b9150509250929050565b6000602082019050611216600083018461100e565b92915050565b61122581610e6b565b811461123057600080fd5b50565b6000813590506112428161121c565b92915050565b6000806040838503121561125f5761125e610dc1565b5b600061126d85828601611233565b925050602061127e85828601610ddd565b9150509250929050565b60006020828403121561129e5761129d610dc1565b5b60006112ac848285016111ac565b91505092915050565b7f4e487b7100000000000000000000000000000000000000000000000000000000600052603260045260246000fd5b7f4e487b7100000000000000000000000000000000000000000000000000000000600052601160045260246000fd5b600061131e82610d8d565b91507fffffffffffffffffffffffffffffffffffffffffffffffffffffffffffffffff82036113505761134f6112e4565b5b600182019050919050565b600061136682610d8d565b915061137183610d8d565b9250828203905081811115611389576113886112e4565b5b9291505056fea26469706673582212209d1195af6a40687abc1467abd5208a44e4622b1dda15e5de88d74b3a63b979c364736f6c634300081c0033",
  "linkReferences": {},
  "deployedLinkReferences": {}
}